{
  "_format": "hh-sol-artifact-1",
  "contractName": "Escrow",
  "sourceName": "contracts/Escrow.sol",
  "abi": [
    {
      "inputs": [
        {
          "internalType": "address",
          "name": "_arbiter",
          "type": "address"
        },
        {
          "internalType": "address",
          "name": "_beneficiary",
          "type": "address"
        }
      ],
      "stateMutability": "payable",
      "type": "constructor"
    },
    {
      "anonymous": false,
      "inputs": [
        {
          "indexed": false,
          "internalType": "uint256",
          "name": "",
          "type": "uint256"
        }
      ],
      "name": "Approved",
      "type": "event"
    },
    {
      "inputs": [],
      "name": "approve",
      "outputs": [],
      "stateMutability": "nonpayable",
      "type": "function"
    },
    {
      "inputs": [],
      "name": "arbiter",
      "outputs": [
        {
          "internalType": "address",
          "name": "",
          "type": "address"
        }
      ],
      "stateMutability": "view",
      "type": "function"
    },
    {
      "inputs": [],
      "name": "beneficiary",
      "outputs": [
        {
          "internalType": "address",
          "name": "",
          "type": "address"
        }
      ],
      "stateMutability": "view",
      "type": "function"
    },
    {
      "inputs": [],
      "name": "depositor",
      "outputs": [
        {
          "internalType": "address",
          "name": "",
          "type": "address"
        }
      ],
      "stateMutability": "view",
      "type": "function"
    },
    {
      "inputs": [],
      "name": "isApproved",
      "outputs": [
        {
          "internalType": "bool",
          "name": "",
          "type": "bool"
        }
      ],
      "stateMutability": "view",
      "type": "function"
    }
  ],
  "bytecode": "0x608060405260405161062638038061062683398181016040528101906100259190610151565b816000806101000a81548173ffffffffffffffffffffffffffffffffffffffff021916908373ffffffffffffffffffffffffffffffffffffffff16021790555080600160006101000a81548173ffffffffffffffffffffffffffffffffffffffff021916908373ffffffffffffffffffffffffffffffffffffffff16021790555033600260006101000a81548173ffffffffffffffffffffffffffffffffffffffff021916908373ffffffffffffffffffffffffffffffffffffffff1602179055505050610191565b600080fd5b600073ffffffffffffffffffffffffffffffffffffffff82169050919050565b600061011e826100f3565b9050919050565b61012e81610113565b811461013957600080fd5b50565b60008151905061014b81610125565b92915050565b60008060408385031215610168576101676100ee565b5b60006101768582860161013c565b92505060206101878582860161013c565b9150509250929050565b610486806101a06000396000f3fe608060405234801561001057600080fd5b50600436106100575760003560e01c806312424e3f1461005c57806328f371aa1461006657806338af3eed14610084578063c7c4ff46146100a2578063fe25e00a146100c0575b600080fd5b6100646100de565b005b61006e610244565b60405161007b91906102e2565b60405180910390f35b61008c610257565b604051610099919061033e565b60405180910390f35b6100aa61027d565b6040516100b7919061033e565b60405180910390f35b6100c86102a3565b6040516100d5919061033e565b60405180910390f35b60008054906101000a900473ffffffffffffffffffffffffffffffffffffffff1673ffffffffffffffffffffffffffffffffffffffff163373ffffffffffffffffffffffffffffffffffffffff161461013657600080fd5b60004790506000600160009054906101000a900473ffffffffffffffffffffffffffffffffffffffff1673ffffffffffffffffffffffffffffffffffffffff16826040516101839061038a565b60006040518083038185875af1925050503d80600081146101c0576040519150601f19603f3d011682016040523d82523d6000602084013e6101c5565b606091505b5050905080610209576040517f08c379a0000000000000000000000000000000000000000000000000000000008152600401610200906103fc565b60405180910390fd5b7f3ad93af63cb7967b23e4fb500b7d7d28b07516325dcf341f88bebf959d82c1cb826040516102389190610435565b60405180910390a15050565b600260149054906101000a900460ff1681565b600160009054906101000a900473ffffffffffffffffffffffffffffffffffffffff1681565b600260009054906101000a900473ffffffffffffffffffffffffffffffffffffffff1681565b60008054906101000a900473ffffffffffffffffffffffffffffffffffffffff1681565b60008115159050919050565b6102dc816102c7565b82525050565b60006020820190506102f760008301846102d3565b92915050565b600073ffffffffffffffffffffffffffffffffffffffff82169050919050565b6000610328826102fd565b9050919050565b6103388161031d565b82525050565b6000602082019050610353600083018461032f565b92915050565b600081905092915050565b50565b6000610374600083610359565b915061037f82610364565b600082019050919050565b600061039582610367565b9150819050919050565b600082825260208201905092915050565b7f4661696c656420746f2073656e64206574686572000000000000000000000000600082015250565b60006103e660148361039f565b91506103f1826103b0565b602082019050919050565b60006020820190508181036000830152610415816103d9565b9050919050565b6000819050919050565b61042f8161041c565b82525050565b600060208201905061044a6000830184610426565b9291505056fea264697066735822122096fef39806ae597817e3e5d7f5d056ac79e1a27c5487a34c5f1d595b3a8e509164736f6c63430008180033",
  "linkReferences": {},
  "deployedLinkReferences": {}
}